:020000040800F2
:1000000000000220818A0008710C0008750C0008AD
:10001000790C00087D0C0008810C0008000000002D
:10002000000000000000000000000000850C000837
:10003000890C0008000000008D0C0008910C0008DD
:10004000D18A0008D18A0008D18A0008D18A000824
:10005000D18A0008D18A0008D18A0008D18A000814
:10006000D18A0008D18A0008D18A0008950C0008BE
:10007000A10C0008AD0C0008D18A0008D18A000844
:10008000D18A0008D18A0008D18A0008D18A0008E4
:10009000D18A0008D18A0008D18A0008D18A0008D4
:1000A000D18A0008D18A0008D18A0008D18A0008C4
:1000B000D18A0008D18A0008D18A0008D18A0008B4
:1000C000D18A0008D18A0008D18A0008D18A0008A4
:1000D000D18A0008D18A0008D18A0008B90C00082A
:1000E000D18A0008D18A000800000000D18A0008E7
:1000F000D18A0008D18A0008D18A0008D18A000874
:10010000D18A0008D18A0008D18A0008D18A000863
:10011000D18A0008D18A0008D18A0008D18A000853
:10012000D18A0008D18A0008D18A0008D18A000843
:10013000D18A0008D18A0008D18A0008D18A000833
:1001400000000000000000000000000000000000AF
:10015000D18A0008D18A0008D18A0008D18A000813
:10016000D18A0008D18A0008D18A0008D18A000803
:10017000D18A0008C50C0008D10C0008000000005E
:10018000D18A0008D18A0008D18A0008D18A0008E3
:10019000D18A0008D18A0008D18A0008D18A0008D3
:1001A000D18A0008D18A0008D18A0008D18A0008C3
:1001B000D18A0008D18A0008D18A0008D18A0008B3
:1001C000D18A0008D18A0008D18A0008D18A0008A3
:1001D000D18A0008DD0C0008D18A0008D18A000805
:1001E000D18A0008D18A0008D18A0008D18A000883
:1001F000D18A0008D18A0008D18A0008D18A000873
:10020000D18A0008D18A0008D18A0008D18A000862
:10021000D18A0008D18A0008D18A0008D18A000852
:10022000D18A0008D18A0008D18A000800000000A5
:10023000D18A0008D18A000800000000D18A000895
:10024000D18A0008D18A0008D18A0008D18A000822
:10025000D18A0008D18A0008D18A0008D18A000812
:10026000D18A0008D18A0008D18A0008D18A000802
:10027000D18A0008D18A0008D18A00080000000055
:10028000D18A0008D18A0008D18A00080000000045
:0802900000000000D18A000803
:1002A000034613F8012B002AFBD1181A01387047B6
:1002B00001F0FF01102A2BDB10F0070F08D010F817
:1002C000013B013A8B422DD010F0070F42B3F6D11B
:1002D000F0B441EA012141EA014122F007047FF034
:1002E00000070023F0E80256083C85EA010586EA8B
:1002F000010685FA47F5A3FA87F586FA47F6A5FAC7
:1003000087F68EB9EED1F0BC01F0FF0102F00702D2
:1003100032B110F8013B013A83EA010313B1F8D17D
:100320000020704701387047002D06BF354603385E
:10033000073815F0010F07D1013015F4807F02BF97
:10034000013015F4C03F0130F0BC0138704700BFE8
:1003500053B94AB9002908BF00281CBF4FF0FF312C
:100360004FF0FF3000F00CB8ADF1080C6DE904CE91
:100370000AF04EFFDDF804E0DDE9022304B0704727
:10038000704700BF0348044B834202D0034B03B1C4
:1003900018477047C8040020C8040020000000006F
:1003A00005480649091A891001EBD171491002D09C
:1003B000034B03B118477047C8040020C80400204D
:1003C0000000000010B5064C237843B9FFF7DAFFB0
:1003D000044B13B10448AFF300800123237010BD18
:1003E000C804002000000000E0B4000808B5054B78
:1003F0001BB105490548AFF30080BDE80840FFF791
:10040000CFBF00BF00000000CC040020E0B4000813
:1004100008B50122074B4FF4004107481A7004F059
:100420006BF9064B1A68511C012A196001D9002288
:100430001A6008BD2407002000000258E4040020D0
:10044000704700BF704700BF704700BF2DE9F04FF5
:1004500000222C482C4C83B0DFF8C4901646DFF8FD
:10046000C4801746DFF8C0E01346DFF8C0C011466D
:10047000264D02701046227899F800A0019298F853
:1004800000909EF800809CF800E095F800C0204D98
:1004900023E011FB09F413F0040B5444A4B24FEA17
:1004A000441212B220D011FB0EF1414489B20FFA6E
:1004B00081FB42EAC02201334BEA0202102B25F8ED
:1004C000022F13D0D91013F00100CFB204D0019A3B
:1004D00011FB02F0604480B2012613F00202D8D171
:1004E00013F0040B1446DED15946E2E7094B0A4AE1
:1004F00018800A4B148019800EB1024B1F7003B094
:10050000BDE8F08F20070020040000200500002037
:10051000FEFFFF23260700202207002028070020D7
:100520000100002003000020000000200200002045
:100530003038492829D8DFE800F02E282828282834
:10054000282828282828282828282828282828282B
:10055000282828282828282828282828282828281B
:100560002828282828282828282828322828373CDE
:1005700041464B2850282828282825565B60656A64
:1005800028712829284B01221A707047274A1378AE
:10059000013313707047264B01221A707047254AA9
:1005A0001378013B13707047234A1378013B137093
:1005B0007047214A13780133137070471F4A13782C
:1005C000013B137070471E4A1378013B137070474C
:1005D000164A1378013B137070471A4A1A4B116878
:1005E0000B4413607047134A13780133137070473C
:1005F000124A1378013313707047144A1378013B81
:10060000137070470E4A13780133137070470D4A08
:1006100044F6206311680B44136070470B4A13784B
:1006200001331370704700BF240700200200002030
:10063000E804002005000020000000200400002045
:1006400003000020F4020020E0B1FFFF01000020C1
:100650000268044B9A4200D07047034B5878FFF76A
:1006600067BF00BF00480040200000240268044B20
:100670009A4200D07047034B1878FFF759BF00BF6C
:10068000004800402000002470B59CB04C2200219E
:1006900009A808F043FA2022002101A808F03EFA38
:1006A000022005F00DFD2A4B0022184600929969A0
:1006B000284A41F4404199619B6903F44043009307
:1006C000D36A43F00103D362D36A03F001030093BA
:1006D000009B83699B04FCD521214FF480320223C7
:1006E0000124099150260A920C2100220F2509A805
:1006F0001493169318930F94159617951B92CDE9A2
:100700001233CDE9191202F001FA034608B172B6AC
:10071000FEE73F22032108250393019240234FF473
:100720008062029101A804210693CDE90453CDE92A
:10073000072302F0B1FD08B172B6FEE720464FF480
:1007400080224FF0804102F0CBFC1CB070BD00BF96
:1007500000480258000400582DE9F84F05F074FDD8
:10076000534CFFF791FF534F00F0DCF8DFF8A491F2
:1007700007F0AAFC504E00F0C9FA504D07F05AFE9F
:10078000DFF8948107F0D4FE00F09AF902214C487A
:1007900003F0B2FF01224FF400514A4803F0A8FFD2
:1007A0000A2005F093FD0221454803F0A5FF002231
:1007B0004FF40051434803F09BFF02224249434853
:1007C00006F0F8FC4FF477325521204608F0A6F9E0
:1007D0004FF41632552107F2822008F09FF9FFF7F7
:1007E00035FE3B4808F056FE4FF477432246002181
:1007F000384808F023F80146374808F0C5FD2AE0DC
:1008000098F800302BB3354B3548197808F0BCFD0B
:10081000344B3548197808F0B7FD344B3448197813
:1008200008F0B2FD334B3448197808F0ADFD334B76
:100830003348197808F0A8FD324B3348197808F08E
:10084000A3FD324B3248196808F09EFD002388F85A
:10085000003008F0D9F899F80030002BD0D0DFF83C
:10086000BCE04FF0280A4FF4D07B4FF4F73C7146C0
:1008700048220BFB0AF03368013303F0010348BF41
:100880005B420CFB030323449B5C013235F81330BD
:10089000B2F5C47F21F8023FEDD1AEF5207E0AF11A
:1008A000010ABE45E3D1002389F80030A8E700BF64
:1008B00000000030A2FDFF23E4040020000000241B
:1008C00000100258000C025820000024A407002049
:1008D000F8B40008F03A002008B500080500002030
:1008E00028B500080100002040B5000800000020E5
:1008F00058B500080400002070B50008030000206F
:1009000088B5000802000020A0B50008F40200200D
:10091000BCB5000824070020E8040020A2550224EA
:1009200072B6FEE72DE9F0475F4B8CB0002401253D
:100930000227DFF8809108942246079448460B94DA
:100940004FF41051DFF87081DFF870A1CDE9094450
:10095000D3F8E06046F01006C3F8E060D3F8E0603A
:1009600006F010060096009ED3F8E06046F00406FC
:10097000C3F8E060D3F8E06006F004060196019E3B
:10098000D3F8E06046F08006C3F8E060D3F8E0609A
:1009900006F080060296029ED3F8E0602E43C3F86C
:1009A000E060D3F8E0602E400396039ED3F8E06049
:1009B0003E43C3F8E060D3F8E0603E400496049EF6
:1009C000D3F8E06046F00806C3F8E060D3F8E060D2
:1009D00006F008060596059ED3F8E06046F040064E
:1009E000C3F8E060D3F8E030304E03F040030693E4
:1009F000069B03F07DFE224640464FF4004103F083
:100A000077FE224630464FF4A05103F071FE224695
:100A10005046394603F06CFE4FF4005307A93046A8
:100A20000793CDE9084403F02DFD4FF410534846D9
:100A300007A9CDE90735CDE9094403F023FD80225C
:100A40004FF4881307A91A4807920893099403F0F2
:100A500019FD4FF4007307A930460B94CDE9073711
:100A6000CDE9094403F00EFD4FF40043404607A9C9
:100A700007930A94CDE9085403F004FD4FF4A05302
:100A8000304607A907930A94CDE9085403F0FAFC0D
:100A900007A95046CDE90775CDE9094403F0F2FCFA
:100AA0000CB0BDE8F08700BF0044025800080258AF
:100AB00000180258000C025800000258001002589A
:100AC00038B51F4B00220C211E4D1F4C1846596192
:100AD0001A619A62C3E90054C3E90222C3E90622FB
:100AE000C3E9082206F0DCFA70B90021144806F0C8
:100AF000D1FB88B90021124806F0F8FBA0B91048D4
:100B000006F0AAFBB8B938BDFFF70AFF00210C4870
:100B100006F0C0FB0028EDD0FFF702FF00210848D7
:100B200006F0E4FB0028EAD0FFF7FAFE044806F0DE
:100B300093FB0028E7D0BDE83840FFF7F1BE00BFC7
:100B4000A40700200048004080841E00F0B5002368
:100B5000B7B00446BC22194607A80693CDE9023374
:100B6000CDE9043307F0DAFF22683A4B9A4201D00C
:100B700037B0F0BD022307A8079302F0F1FD00286B
:100B80005ED1354B4FF4407602200025D3F8E820A3
:100B900002A9324F42F48022C3F8E820D3F8E820BB
:100BA00002F480220092009AD3F8E02042F008027A
:100BB000C3F8E0200722D3F8E030029603F00803E0
:100BC000274E039001932748019B0692CDE90455D7
:100BD00003F058FC2E2140224FF480633046F5602C
:100BE0007562B2603361C6E90555C6E90755C6E9C5
:100BF000007103F099FF48BB1B4D00231B482D27B4
:100C00004FF480614FF4807228602846A667B46371
:100C10006F602961EA61C5E90233C5E90533C5E9B9
:100C2000083303F081FF70B90022E5672720AC6329
:100C3000114605F087FA272005F0BAFA37B0F0BD63
:100C4000FFF76EFE9DE7FFF76BFEEDE7FFF768FE2F
:100C5000D2E700BF004800400044025810000240A4
:100C600034080020000C02582C0700202800024005
:100C7000FEE700BFFEE700BFFEE700BFFEE700BFE4
:100C8000FEE700BF704700BF704700BF704700BF5E
:100C900005F00ABB014804F0C3BC00BF34080020C3
:100CA000014804F0BDBC00BF2C070020014804F03F
:100CB000B7BC00BF783A0020014805F033BC00BF44
:100CC000A4070020014800F07DBC00BF4C3000208C
:100CD000014807F049BE00BFF03A0020014800F08B
:100CE00071BC00BF54340020074B82B0D3F8F4200D
:100CF00042F00202C3F8F420D3F8F43003F0020308
:100D00000193019B02B070470044025808B50122CC
:100D10002B492C4806F07CFB40BB2B49294806F0A8
:100D20008DFB58BB2949274807F0ECFA00282DD144
:100D3000244806F09FFB00282FD100222449254893
:100D400006F066FB002837D12349224806F076FBDF
:100D500078BB22491F4807F081F938BB1D4806F0CF
:100D600089FBE8B9BDE8084005F0D0B9FFF7D8FD28
:100D70001549144806F062FB0028D3D0FFF7D0FDD8
:100D80001249104807F0BEFA0028D1D0FFF7C8FD7D
:100D90000C4806F06FFB0028CFD0FFF7C1FDCCE771
:100DA000FFF7BEFDBDE8084005F0B0B9FFF7B8FD9C
:100DB000D4E7FFF7B5FDCCE7FFF7B2FDC4E700BF0E
:100DC000240000207C0B0020BC010020E402002055
:100DD00008000020AC080020AC00002088000020A3
:100DE000122301480B807047540000201223014851
:100DF0000B80704740000020042301480B8070479F
:100E0000680000200023F0B44F1C1E46050F0001AF
:100E1000ECB2092D04F1300504F1370494BF01F858
:100E2000135001F8134007F8136001339A42EDD1D3
:100E3000F0BC70470A4A0B4B10681B68C01800D101
:100E40007047094B0822094910B51C68FFF7DAFF03
:100E5000042207492046BDE81040FFF7D3BF00BF7A
:100E600000E8F11F08E8F11F04E8F11F6E00002000
:100E70007E00002008B51A230B80FFF7DBFF014836
:100E800008BD00BF6C00002010B5044C0A460448A1
:100E9000214606F0F9FE204610BD00BF4C0E002092
:100EA000F0B5000810B5044C0A460448214606F087
:100EB000EBFE204610BD00BF4C0E002010B600080F
:100EC00010B5044C0A460448214606F0DDFE2046D3
:100ED00010BD00BF4C0E00200CB6000810B5044C2D
:100EE0000A460448214606F0CFFE204610BD00BF4A
:100EF0004C0E0020F4B5000810B5044C0A46044816
:100F0000214606F0C1FE204610BD00BF4C0E002059
:100F1000D4B5000810B5044C0A460448214606F032
:100F2000B3FE204610BD00BF4C0E0020E0B5000807
:100F3000042301480B8070476800002008B51A237D
:100F40000B80FFF777FF014808BD00BF6C00002051
:100F500010B5044C0A460448214606F095FE20468A
:100F600010BD00BF4C0E0020F0B5000810B5044CB9
:100F70000A460448214606F087FE204610BD00BF01
:100F80004C0E00200CB6000800207047002070476F
:100F90000020704710B5054C0146204607F072F856
:100FA000204607F079F8002010BD00BFAC080020F3
:100FB00010B5064C00220649204607F057F8204697
:100FC000044907F05FF8002010BD00BFAC08002006
:100FD0004C2000204C180020F0B50023BDB0044682
:100FE000BC2219460DA80C93CDE90833CDE90A338C
:100FF00007F094FD2368654A934204D0644A934203
:1010000049D03DB0F0BD4FF480224FF480130DA8BD
:101010000D922E9302F0A4FB002840F0B0805D4CAE
:1010200005F074F84FF4C8500221D4F8E0300025E0
:101030000A2243F00103C4F8E030D4F8E03008900D
:1010400003F001030991544808A90193019B0A95F3
:10105000CDE90B5203F016FA4FF4007308A94E487D
:101060000893CDE9095503F00DFAD4F8D8302A4693
:10107000294643F000636520C4F8D830D4F8D8304E
:1010800003F000630293029B05F05CF8652005F015
:101090008FF83DB0F0BD4FF480224FF480130DA8BF
:1010A0000D922E9302F05CFB00286BD1394C05F0B9
:1010B0002DF802250D22D4F8E03000260A2708A9D1
:1010C00043F004033548C4F8E030D4F8E03003F0CE
:1010D00004030393039BD4F8E03043F00103C4F806
:1010E000E030D4F8E03003F001030493049BD4F81B
:1010F000E0302B43C4F8E030D4F8E03008922B40C5
:1011000009950B950593059B0A960C9703F0BAF980
:10111000282308A920480893CDE90956CDE90B57A3
:1011200003F0B0F943F6234308A91D4808930C9730
:101130000B95CDE9095603F0A5F9D4F8D83032461D
:10114000012143F000734D20C4F8D830D4F8D830D2
:1011500003F000730693069BD4F8D83043F0806305
:10116000C4F8D830D4F8D83003F080630793079BD5
:1011700004F0E8FF4D2005F01BF83DB0F0BDFFF78F
:10118000CFFB4CE7FFF7CCFB90E700BF0000084027
:1011900000000440004402580000025800080258B1
:1011A0000004025800F57171D0F8040406F074B917
:1011B000C1EBC10300EB8303D0F80404D3F8082289
:1011C00006F09AB9C1EBC10300EB8303D0F8040425
:1011D0009A6C06F0C5B900BFD0F8040406F062BAF4
:1011E000C16810B5044611B102290AD10121D4F811
:1011F000040406F03BFAD4F80404BDE8104006F0FD
:1012000009BAFFF78DFB0121F1E700BF10B50446D5
:10121000D0F8040406F02EFA2268D2F8003E43F01B
:101220000103C2F8003E236A23B1034A136943F065
:101230000603136110BD00BF00ED00E0D0F8040408
:1012400006F024BAD0F8040406F054BAD0F8040426
:1012500006F03CBAD0F8040406F060BAD0F80404F2
:1012600006F05EBAF8B5037804461BB1012B2BD00B
:101270000020F8BD2B4A0225012109262A4FC2F879
:101280000404C0F8C422104613611363D560C2E998
:101290000833C2E90076C2E90651C2E90A1100F03A
:1012A000DBF800283BD180211E4800F027FE4022B9
:1012B00000211C4800F0FEFD80220121194800F0A9
:1012C000F9FD2378012BD3D1184A00210925184EA6
:1012D000C2F804441046C4F8C42293625163C2E9C0
:1012E0000633C2E90065C2E90311C2E90811C2E987
:1012F0000B1100F0B1F878B980210A4800F0FEFD2A
:1013000040220021074800F0D5FD80220121054838
:1013100000F0D0FD0020F8BDFFF702FBECE7FFF77F
:10132000FFFAC0E754340020000008404C30002091
:101330000000044008B5D0F8C40200F021F90328E9
:1013400002D8024B185C08BD032008BD20B6000877
:1013500010B51C46D0F8C4021346224600F066FCC5
:10136000032802D8024B185C10BD032010BD00BF3B
:1013700020B6000808B5D0F8C40200F091FC03289C
:1013800002D8024B185C08BD032008BD20B6000837
:1013900008B5D0F8C40200F00DFD032802D8024BB6
:1013A000185C08BD032008BD20B6000808B5D0F8B9
:1013B000C40200F043FD032802D8024B185C08BDAC
:1013C000032008BD20B600080A06D0F8C43206D4AF
:1013D000C1EBC10103EB810191F8FE01704701F0FF
:1013E0007F01C1EBC10103EB810191F83E00704721
:1013F00008B5D0F8C40200F005FC032802D8024B5F
:10140000185C08BD032008BD20B6000808B5D0F858
:10141000C40200F0ABFC032802D8024B185C08BDE4
:10142000032008BD20B6000808B5D0F8C40200F0BB
:101430006BFC032802D8024B185C08BD032008BDD2
:1014400020B60008D0F8C40200F086BC00487047FF
:10145000EC040020704700BFF0B58BB0002800F00E
:10146000878090F8BD330446056803F0FF02002B27
:1014700078D0284603236F46261D84F8BD33EB6BD6
:10148000254613F4807308BF236100F051FE55F820
:1014900010EBAC46BCE80F000FC7BCE80F000FC74D
:1014A0009CE8030087E80300704696E80E0000F011
:1014B00069FD074630B101250223284684F8BD3373
:1014C0000BB0F0BD0146206800F03AFE606850B3F2
:1014D00039464FF0010C3A46C1EBC1034F1C04EBF7
:1014E000830383F83C10A3F84210F9B283F83DC09F
:1014F000814283F83F201A65C3E91122ECD3002210
:101500001146C2EBC203571C04EB830383F8FC2192
:10151000FAB283F8FD11824283F8FF11C3F810126A
:10152000C3E98111EDD36F460FCD0FC70FCD0FC7A4
:1015300095E8030087E8030096E80E00206800F0B5
:1015400083FE05460028B6D10122636A84F838007C
:10155000934284F8BD230FD0206801F053FA284647
:101560000BB0F0BD80F8BC23FFF736FD206881E7A3
:10157000012528460BB0F0BD204600F0C3FCEBE788
:1015800090F8BC230368012A19D00121826A8A429B
:1015900010B580F8BC130AD00446184600F0C0FD10
:1015A000206801F01FFA002084F8BC0310BD826996
:1015B0008A42F1D09A6B42F480329A63ECE70220BF
:1015C000704700BF2DE9F04F076887B004463846E2
:1015D00001F05AFA10B107B0BDE8F08F0546206857
:1015E00001F020FA0028F6D0206801F01BFA10F074
:1015F000020F206803D0436903F00203436101F046
:1016000011FA10F0100F206812D0836923F0100334
:1016100083613E6AC6F3434306F00F08022B00F0D5
:101620006882062B00F00582836943F01003836112
:1016300001F0F8F910F4002F206840F0228101F049
:10164000F1F9460378D4D4F800B0584601F0EAF92D
:1016500000285DDB206801F0E5F900054DD4206825
:1016600001F0E0F9020114D5226894F8F4135369EB
:1016700003F000635361002940F0C581536D0121DF
:101680002046C3F3830384F8F413C4F8F83300F05E
:101690004FFC206801F0C6F9C30400F1688120689E
:1016A00001F0C0F910F4005F206840F0498101F0BA
:1016B000B9F9070700F13B81206801F0B3F9C602D0
:1016C00000F12B81206801F0ADF9850200F11B814A
:1016D000206801F0A7F9400000F10C81206801F0BA
:1016E000A1F941077FF577AF23685D686A0700F1CC
:1016F00021825A682A435A606DE7D7F80838D9071B
:1017000000F114822068436903F400634361A7E792
:1017100094F8F413D7F80428012922F00102C7F83D
:10172000042800F07F812046FFF788FD2068436988
:1017300003F0004343618EE7206801F07FF9D4F89D
:1017400000B08146002880D007F5106326464FF090
:10175000000A0495CDE902375F4607E05FEA5909C0
:101760000AF1010A06F11C0600F0788119F0010F58
:10177000F4D05FFA8AF83846414601F071F905461F
:10178000E80718D5039B01270AF00F01029AD3F846
:10179000340807FA01F102EB4A1220EA010021693C
:1017A000C3F83408B94213469F6000F0C88141462F
:1017B0002046FFF707FD290704D5029B082203EB0B
:1017C0004A139A60EA0604D5029B102203EB4A13DF
:1017D0009A606B0604D5029B402203EB4A139A6081
:1017E000AF0700F13F812D062768B7D5D6E914234E
:1017F0009342B3D8D01A756C07F5106B0597A842C1
:1018000084460BEB4A1B28BFAC46DBF818100CF1E2
:10181000030C89B2B1EB9C0F23D312B3934220D2B5
:10182000B16C05E09A42A2EB030019D9C2B1756C04
:101830008542424628BF0546207CABB20090384620
:1018400001F01EF8DBF81820B16CE81C736D92B241
:1018500029442B44B2EB900FB1647365326DE1D231
:1018600027689342FFF47AAF059B0AF00F0101202D
:10187000D3F8342800FA01F122EA0102C3F834282F
:101880006CE701F0D3F806462068002E3FF4D7AE8F
:1018900004F501794FF0000807F5306B029706E078
:1018A000760808F1010809F11C0900F0D580F70756
:1018B000F6D55FFA88FA514601F0C8F80746206865
:1018C000F90700F1F4803B0700F1D680FA0603D552
:1018D0000BEB481310229A60BB0603D50BEB4813A1
:1018E00020229A60BF04DBD50BEB48134FF4005263
:1018F0009A60D5E72046FFF7ADFC2068436903F006
:1019000080434361EBE620460021FFF79BFC206803
:10191000436903F400134361DBE620460021FFF72F
:1019200095FC2068436903F480134361CBE62046AD
:10193000FFF752FC2068436903F008034361BCE6EB
:1019400001F0A6F8206800F041FD2568E06001F094
:10195000C9FD227B0146284600F062FB2046FFF7C6
:101960003FFC2068436903F4005343619FE607F599
:10197000006673682068102123F00103736000F093
:1019800015FCD4F804C0BCF1000F1BD007F51063A0
:101990004FF67F31996001351A682033654522F48E
:1019A000001243F8202CC3F8E811D3F8E02122F408
:1019B0000012C3F8E021D3F8E02142F00062C3F83E
:1019C000E021E7D1F369226B43F00113F361F2B92F
:1019D000726942F22B0313437361336943F00B03C3
:1019E0003361D7F8003804F57172217C23F4FE636B
:1019F0002068C7F8003801F061F82068436903F4F3
:101A0000805343614CE62046FFF700FC41E6D6F8E0
:101A1000843043F00B03C6F88430736C43F00B033F
:101A20007364DEE70021204684F8F41300F080FAA6
:101A30007CE6C8EBC808082204F57171384600F04E
:101A400035FFC6F30A1304EB88022068D2F814129B
:101A50000B44C2F81432E7E5029FF0E5BB46049D53
:101A6000039FF2E55146039800F0A0FB029B02227F
:101A700003EB4A139A60B6E64FEA481308210BEBD2
:101A8000030203F5306391600344026C5B4899687C
:101A9000824266D9090402D54FF400429A6020467A
:101AA000FFF780FB2169012979D020680EE74FEA12
:101AB0004813226900F5306E4FF0010C0BEB030167
:101AC000012A7344C1F808C0D0F840C099684DD0CD
:101AD0004B4A944557D0B8F1000F04D1D4F81032D6
:101AE000002B00F0858020465146FFF761FB2068FF
:101AF000E9E647F6F0731E423FF496ADC8EBC8081E
:101B0000C6F30A16384604EB88083246D8F808129D
:101B100000F0CCFED8F80822D8F8143232442068FD
:101B20001E44C8F80822C8F814627DE52046FFF775
:101B30006DFBE7E52046FFF791FB2368D9E5D6E981
:101B400011231344B364BAF1000F7FF430AE236D58
:101B5000002B7FF42CAE04F57172206800F0AEFF0C
:101B600025E62046FFF71EFB2068AFE60A0711D5E1
:101B7000224A94457FF6A7AE09047FF5A4AE4FF440
:101B800000429A609FE60A04F9D48A06ABD5202267
:101B90009A60A8E78A0608D520229A6093E604F5A1
:101BA0007172206800F08AFF7FE711F0280F7FF440
:101BB0008AAE124A944501D90904E0D41B69D9F8C8
:101BC0000010D9F80420C3F312030A44CB1AC9F851
:101BD0000420C9F81030B8F1000F84D1D4F81032C5
:101BE000002B80D104F57172012100F067FF7AE7C4
:101BF00004F57172414600F061FF74E70A30544FFA
:101C00000A31544F90F8BC23012A0DD0012210B59F
:101C1000044684F83810006884F8BC2300F0D0FE35
:101C2000002084F8BC0310BD02207047F8B501F015
:101C30000F040906C4EBC4054FEA850523D405F556
:101C4000FE71C4EBC405002600EB8505014485F850
:101C5000FD614D780C708A60CB7095B9022B01D173
:101C600000230B7190F8BC33012B17D004460123DD
:101C7000006884F8BC3300F0B5FB002084F8BC0396
:101C8000F8BDCC80EAE7C4EBC40605F13C010127AE
:101C900000EB8605014485F83D70DAE70220F8BDC7
:101CA00001F00F02090638B5C2EBC2034FEA830305
:101CB00019D403F5FE71C2EBC203002400EB8303C9
:101CC000014483F8FD410A7090F8BC33012B19D010
:101CD00004460123006884F8BC3300F0C5FB0020F3
:101CE00084F8BC0338BD03F13C01C2EBC2040125FA
:101CF00000EB8403014483F83D500A7090F8BC3334
:101D0000012BE5D1022038BD70B501F00F0500268A
:101D10001C21C5EBC50401FB050100EB840401F5A2
:101D2000FE71C4F80822C4F8103284F8FC51C4F8DB
:101D3000146284F8FD6103690068012B08BFC4F8D0
:101D40000C22DAB21DB900F013FD002070BD00F0C6
:101D5000EBFB002070BD00BF01F00F01C1EBC10122
:101D600000EB8101D1F81402704700BFF8B501F013
:101D70000F05012600271C21C5EBC50401FB050149
:101D800000EB84043C31A264236584F83C50676511
:101D900084F83D6003690068B34208BFE264DAB2C8
:101DA0001DB900F0E5FC0020F8BD00F0BDFB0020EF
:101DB000F8BD00BF38B5436801F00F059D4233D828
:101DC0000B061DD4C1EBC1031C24002204FB01013E
:101DD00000EB830301F5FE7183F8FD2101230D70F3
:101DE0008B7090F8BC239A421CD0044680F8BC3318
:101DF000006800F081FDCDB1002084F8BC0338BD3F
:101E00001C21C5EBC503012201FB050100EB830387
:101E10003C3183F83D2001230D708B7090F8BC237A
:101E20009A42E2D1022038BD012038BD04F571721A
:101E3000217C206800F042FEDEE700BF38B501F0EB
:101E40000F0243689A4233D8C2EBC20309064FEA35
:101E500083031BD403F5FE73C2EBC2040025C11833
:101E600000EB840383F8FD5100250A708D7090F813
:101E7000BC33012B1AD004460123006884F8BC331C
:101E800000F072FD84F8BC53284638BDC2EBC20492
:101E90003C33012500EB8404C11884F83D50002533
:101EA0000A708D7090F8BC33012BE4D1022038BD4C
:101EB000012038BD30B4056812046C6A21B914439E
:101EC0000020AC6230BC7047AB6A013904EB1344AC
:101ED0000BD0002303F14000013305EB8000DBB29F
:101EE00040688B4204EB1044F4D34031144300208B
:101EF00005EB81014C6030BC704700BF03680020D7
:101F00005962704703680121084A30B4C0F8FC13D5
:101F100004469969002541F0006184F8F45328468D
:101F20009961596D0A4330BC5A657047030000102F
:101F3000704700BF82B00023114A019302E0036999
:101F4000002B07DB019B013393420193F7D9032058
:101F500002B0704700230A4A0193036943F001036A
:101F6000036103E0036913F0010305D0019B013312
:101F700093420193F6D9EAE7184602B0704700BFD2
:101F8000400D030084B038B50A9D05AC012D84E8EE
:101F90000E00014628D1826B1F4B22F4803211982B
:101FA0008A630128CA6803EA0203CB60CB6823F482
:101FB0004013CB602AD00846FFF7BCFF089B012BDB
:101FC0000ED1CA6D154B92B2CA65CA6D1343CB656B
:101FD0008B6843F006038B608B6843F020038B60B3
:101FE000BDE8384004B07047C36843F04003C360A5
:101FF000FFF7A0FF0E9B23B98B6B43F480338B63F9
:10200000DCE78B6B23F480338B63D7E7CB6843F437
:102010008013CB60CFE700BFBFFFBDFF0000EE0322
:10202000022A034610B40CD04FF41054D968002093
:1020300021F47051D960DA6822435DF8044BDA600C
:102040007047294A29480A44824237D9284A2948F0
:102050000A44824235D9284A28480A44824233D960
:10206000274A00F5C3300A44A03082422FD9254ABE
:1020700025480A4482422DD9244A00F592200A4478
:1020800000F57870824228D9214A00F5C3200A441D
:1020900000F520708242C7D91E4A00F5B7100A44E5
:1020A00000F5587082421BD91B4A1C4C0A44A242BC
:1020B00094BF4FF4E0544FF4C054B7E74FF470545A
:1020C000B4E74FF46054B1E74FF45054AEE74FF427
:1020D0004054ABE74FF43054A8E74FF42054A5E741
:1020E0004FF40054A2E700BF405327FFFF340C0019
:1020F000401E1BFF3F420F0000DC0BFF7F4F120012
:10210000808CF9FE60B6E5FE5FE3160000D3CEFEDC
:10211000C05BB3FE00CA91FEE05459FEDF9C410053
:1021200002460020936843F001039360704700BFAC
:1021300002460020936823F001039360704700BFBC
:1021400038B5C3680129054623F0C043C36017D0E2
:10215000A1B9C3680C4643F08043C36001E0322C50
:102160000CD00120044404F0B1F86B69DB07F6D40D
:10217000A4F13200B0FA80F0400938BD012038BD2A
:10218000C368002443F00053C36001E0322CF5D053
:102190000120044404F09AF86B69DA07F6D5A4F13B
:1021A0003200B0FA80F04009E7E700BF82B00023B8
:1021B000114A019302E00369002B07DB019B013305
:1021C00093420193F7D9032002B07047890100239D
:1021D000094A41F020010193016103E0036913F012
:1021E000200305D0019B013393420193F6D9EAE71E
:1021F000184602B0704700BF400D030082B00023B4
:10220000104A019302E00369002B07DB019B0133B5
:1022100093420193F7D9032002B0704700211023A5
:10222000084A0191036103E0036913F0100305D02C
:10223000019B013393420193F6D9ECE7184602B0B3
:10224000704700BF400D030084B02DE9F84300241F
:1022500009AE054686E80E0022460E46139F04F19D
:102260004003013405EB83030F2C5A60F7D105F5C9
:102270000064002F43D0AB6B43F40013AB63002228
:102280000E9BC5F8002E012BD5F80028C5F80028B4
:1022900000F08A80D5F8003843F00303C5F8003811
:1022A00010212846FFF782FF80462846FFF7A6FF49
:1022B00048EA000C00225FFA8CFC2261BCEB020CA5
:1022C0006261E26118BF4FF0010C66B305F510635F
:1022D0004FF090484FF0006910464FF67F3E07E000
:1022E000186001321861C3F808E02033B2423ED0D2
:1022F00019680029F4DA9AB1C3F80080F1E763683D
:1023000043F002036360AB6B23F40013AB632B68F1
:1023100043F040032B602B6843F080032B60AEE753
:10232000C3F80090DDE7236900206FF080410C9A2C
:1023300023F480732361A86169611AB9AB6943F022
:102340001003AB61A9691F4B0F9A0B43AB611AB124
:10235000AB6943F00803AB61012F03D1AA691A4BA3
:102360001343AB616046BDE8F84304B070470022F8
:1023700005F530634FF090484FF0006910464FF676
:102380007F3E07E0186001321861C3F808E020338F
:10239000B242C8D019680029F4DA12B1C3F800803B
:1023A000F1E7C3F80090EEE70B9B23B9D5F80038AE
:1023B000C5F8003874E7D5F8003843F00103C5F8D4
:1023C00000386DE700383C8004000040D0F8083841
:1023D00013F0060004D013F0020F14BF02200F20E8
:1023E000704700BF70B40A7801234D7800F500648F
:1023F00002F00F0600EB4210012D03FA06F317D08E
:10240000E26942EA0343E361D0F8003B1B040CD4C9
:102410008B68D0F8004BC3F30A03C978114A2343F1
:1024200043EA81431A43C0F8002B002070BC704778
:10243000E5692B43E361D0F800391C04F5D48B68BF
:10244000D0F80059C3F30A03CC7806492B4343EA7A
:10245000844343EA8252114370BCC0F80019002043
:10246000704700BF0080001010B40B78497800EB73
:10247000431201292AD0D2F8001B002919DB03F0EE
:102480000F014FF48033264C8B40D0F83C18DB43CF
:102490001940C0F83C18D0F81C180B40C0F81C3884
:1024A0000020D2F8003B1C40C2F8004B5DF8044B02
:1024B0007047D2F8001B41F00061C2F8001BD2F84F
:1024C000001B41F08041C2F8001BD8E7D2F8001988
:1024D00000290BDAD2F8001941F00061C2F80019A6
:1024E000D2F8001941F08041C2F80019012103F02F
:1024F0000F030C4C01FA03F3D0F83C18DB431940EE
:10250000C0F83C18D0F81C180B40C0F81C3800204C
:10251000D2F800391C40C2F800495DF8044B7047FE
:102520000078F3EF007833EC2DE9F04F91F801C01B
:102530000F78BCF1010F4B6900EB4715CE7855D0F1
:1025400005F53067DFF824E2D7F810C0854C0CEAB7
:102550000E0ED1F808C0C7F810E0D7F810E00EEA68
:1025600004043C618BB303EB0C047F4BD7F8108061
:10257000012A04F1FF34B4FBFCF403EAC44EA4B214
:102580004EEA080E0CFB04F3C7F810E03C69C3F3F5
:10259000120343EA04033B6123D0012E0CD1D0F88F
:1025A000083813F4807FD5F8003B0CBF43F000538C
:1025B00043F08053C5F8003BD5F8003B43F004439B
:1025C000C5F8003B0020BDE8F08F3C69CCF3120356
:1025D000012A43EA04033B613B6943F400233B6166
:1025E000DBD1CB68002BD8D07B61D6E705F5106432
:1025F000F3B3D1F80890C3F3120ED4F810A0012E53
:1026000009EB0308DFF864B108F1FF380AEA0B0BA5
:10261000DFF850A1C4F810B0D4F810B0B8FBF9F945
:102620000BEA0A0ADFF84081C4F810A008EAC9489A
:10263000D4F8109048EA0908C4F81080D4F8108043
:102640004EEA080EC4F810E054D0012A74D0D5F830
:10265000003907F00F0743F004430CFA07FCC5F8F4
:102660000039D0F834784CEA0707C0F83478A9E785
:10267000D4F81080012ADFF8ECE0DFF8F0C008EAB7
:102680000E0EC4F810E0D4F810E04EF4002EC4F89A
:1026900010E0D4F810E00EEA0C0CC4F810C03ED0E4
:1026A000D5F80049012E44F00444C5F8004989D109
:1026B000D0F8084814F4807FD5F800490CBF44F0E6
:1026C000005444F08054C5F80049002A7FF47AAFE2
:1026D0009BB203339A083FF475AFCB6800EB073029
:1026E00003EB820100F5805053F8042B99420260FD
:1026F000FAD167E7D4F810C0012A2CF0C04CC4F816
:1027000010C0D4F810C04CF0005CC4F810C018D051
:10271000D5F8004944F00444C5F80049C8E70B69FE
:102720006BB9012E10D0D5F80039002043F00443D6
:10273000C5F80039BDE8F08F0B69002BF3D0636159
:10274000EFE70B69002BFAD1D0F8083813F4807F3B
:10275000D5F800390CBF43F0005343F08053C5F85F
:102760000039E0E7FFFF07E00000F81F0000F8FF76
:10277000F0B54E780F78012E4D6900EB471425D047
:1027800004F530633C4F18693C4E074088681F6170
:102790001F693E401E6105B148611D69C0F312000A
:1027A000012A45F400251D611D6940EA05001861F4
:1027B00007D0D4F8003B43F00443C4F8003B0020AA
:1027C000F0BDCA68002AF4D05A61F2E704F510633C
:1027D000ADB3D3F810E0DFF8A0C0284E0EEA0C0C21
:1027E000D1F808E0C3F810C0AE45D3F810C00CEA29
:1027F00006061E6102D27546C1F814E01E69C5F3D3
:102800001205012A46F400261E611E6945EA0605E6
:102810001D6126D0D4F800294B6942F00442C4F867
:102820000029002BCBD007F00F030122D0F8341879
:1028300002FA03F30B43C0F834380020F0BDD3F89C
:1028400010C0A5F500250D4E012A0CEA06061E61F2
:102850001E6946F400261E611E6905EA06051D6113
:10286000D8D10A6902B15A61D4F80039002043F086
:102870000443C4F80039F0BD0000F8FFFFFF07E093
:1028800010B49DF8044064B903339B0809D00132A9
:1028900001EB830300EB023051F8042B8B42026002
:1028A000FAD100205DF8044B704700BFF0B402F08D
:1028B000030792081ED000F580560C460023013312
:1028C00035689A4244F8045BF9D101EB820277B192
:1028D000013F00F580500024BFB200687B1C134408
:1028E00020FA04F1083402F8011B9A42F8D110468C
:1028F000F0BC70470A46EAE70B784A7800EB4310D1
:10290000003318BF0123012A0CD0D0F8002B002A75
:1029100000DBA3B9D0F8003B43F40013C0F8003B40
:1029200000207047D0F80029002A00DB73B9D0F8E6
:10293000003943F40013C0F8003900207047D0F884
:10294000003B23F08043C0F8003BE3E7D0F80039B8
:1029500023F08043C0F80039D0F8003943F4001365
:10296000C0F80039E9E700BFCB780A784978023B24
:1029700000EB42100129DBB211D0D0F8002B012B63
:1029800022F40012C0F8002B01D900207047D0F8C3
:10299000003B43F08053C0F8003B00207047D0F864
:1029A0000029012B22F40012C0F80029EDD8D0F83C
:1029B000003943F08053C0F800390020704700BF51
:1029C000034609010020D3F8002801F4FE6122F437
:1029D000FE62C3F80028D3F800281143C3F800189A
:1029E000704700BF03460020D3F8002E03F50061B6
:1029F00022F00302C3F8002ED3F8043823F00203B8
:102A00004B60704703460020D3F8002E03F50061A9
:102A100022F00302C3F8002ED3F8043843F0020377
:102A20004B6070474269806910407047D0F8183891
:102A300000F50060C0691840000C7047D0F81838E5
:102A400000F50060C069184080B2704700EB41118A
:102A500000F50060D1F8082B40691040704700BFB6
:102A600000F5006200EB411010B401F00F04116991
:102A7000536B00F51060E34080685DF8044BDB01A8
:102A8000DBB20B4318407047406900F0010070470B
:102A90000346094A002003F5006110B4D3F8004949
:102AA00022405DF8044BC3F80029D3F8043843F4FE
:102AB00080734B60704700BF00F8FFFF30B4124CCA
:102AC00000F53063056CA54203D9D0F8004B002C0B
:102AD00016DB002401291C611C6944F400241C61DC
:102AE0001C6944F018041C611C6944F0C0441C615A
:102AF00006D15A61D0F8003B43F08023C0F8003B78
:102B0000002030BC704700BF0A30544F002800F04E
:102B1000F881F8B503680446D9072ED5A7490A6994
:102B2000896A02F03802102A00F00D81182A00F09C
:102B300005816368B3F5803F00F03081002B00F021
:102B40006E81B3F5A02F9D4B1A6800F07E8222F4AF
:102B500080321A601A6822F480221A6003F0B0FBF7
:102B6000964D064605E003F0ABFB801B642800F29F
:102B700054812B689B03F6D52368980700F18E805B
:102B8000D90634D58D4A1369926A03F03803082BAD
:102B900000F0E980182B00F0E180E369002B00F0E1
:102BA0007B81864B1A681D4642F080021A6003F052
:102BB00087FB064605E003F083FB801B022800F23A
:102BC0002C812B68DB05F6D503F092FB41F2030361
:102BD000984200F25C82226A6B68202A23F0F84354
:102BE0000CBF43F0804343EA82636B6023681D0798
:102BF00017D56369002B00F02981704B5A6F1D4671
:102C000042F001025A6703F05BFB064605E003F061
:102C100057FB801B022800F200816B6F9807F6D5E6
:102C200023689A0617D5A369002B00F02281634B15
:102C30001A681D4642F480521A6003F041FB0646B2
:102C400005E003F03DFB801B022800F2E6802B68C4
:102C50009F04F6D52368590700F1A680606AD8B1B1
:102C6000564B1A6902F03802182A00F0C081022877
:102C70001A6800F0528122F080721C461A6003F03C
:102C80001FFB054605E003F01BFB401B022800F27A
:102C9000C48023689B01F6D40020F8BD474A13691D
:102CA000926A13F038032ED1444BE1681B685A072F
:102CB00001D5002950D0414A1368154623F0190365
:102CC0000B43136003F0FCFA064605E003F0F8FA44
:102CD000801B022800F2A1802B685B07F6D503F069
:102CE00007FB41F20303984200F2028122696B68FC
:102CF000402A23F47C330CBF43F4003343EA02330D
:102D00006B6023683CE7182B00F0EE80E268002A35
:102D100000F0D68029490B680D4623F019031343B0
:102D20000B6003F0CDFA064604E003F0C9FA801BFD
:102D3000022872D82B685F07F7D5D0E701F00301AE
:102D400002297FF4F6AE1D4A126892037FF515AF93
:102D50006268002A7FF411AF0120F8BD02F003027F
:102D6000012A7FF41AAF154B1B68DA0502D5E36917
:102D7000802BF1D103F0BCFA41F20303984200F238
:102D8000C280226A202A00F097810C494B6823F008
:102D9000F84343EA82634B60236828E7074A1368D5
:102DA00043F480331360D9E6054B1A681D4642F49C
:102DB00080721A6003F084FA064608E00044025864
:102DC0000048025803F07CFA801B642825D82B6841
:102DD000DA05F7D5A368012B00F06281002B00F023
:102DE0003C81052BB14B1A6F00F06F8122F001027C
:102DF0001A671A6F22F004021A6703F061FAAB4DEA
:102E0000074641F2883604E003F05AFAC01BB0428C
:102E100003D82B6F9B07F7D520E70320F8BDA34B02
:102E20001A681D4622F480321A601A6822F4802241
:102E30001A6003F045FA064604E003F041FA801BED
:102E40006428EAD82B689F03F7D495E6974B5A6F0E
:102E50001D4622F001025A6703F032FA064604E0EA
:102E600003F02EFA801B0228D7D86B6F9907F7D48E
:102E7000D6E68E4B1A681D4622F480521A6003F083
:102E80001FFA064604E003F01BFA801B0228C4D890
:102E90002B689804F7D4DDE6844B1A681D4622F0AF
:102EA00080021A6003F00CFA064604E003F008FA08
:102EB000801B0228B1D82B68DF05F7D4236896E67B
:102EC0007A4B1A681D4622F001021A6003F0F8F9E5
:102ED000064604E003F0F4F9801B02289DD82B6815
:102EE0005807F7D423684BE691077FF40FAFDBE672
:102EF0006B68226923F0FE4343EA02636B60236838
:102F00003EE601207047694A216AD36823F07C536A
:102F100043EA0163D360236869E622F080721D46AC
:102F20001A6003F0CDF9064605E003F0C9F9801BED
:102F300002283FF672AF2B689901F6D4AA6A5C4B5F
:102F4000A06A1340E26A5B490343584E43EA021306
:102F5000AB62276BD4E90D32013F501E013BE26B9F
:102F6000C7F308075B020004013A9BB200F4FE00BD
:102F70001206034302F0FE423B4313432B63EB6A0A
:102F800023F00103EB626A6BA36C114041EAC301B9
:102F90006963EB6A226C23F00C031343EB62EB6A68
:102FA000626C23F002031343EB62EB6A43F4803359
:102FB000EB62EB6A43F40033EB62EB6A43F4802389
:102FC000EB62EB6A43F00103EB622B6843F0807322
:102FD0002B6003F075F9044605E003F071F9001B5E
:102FE00002283FF61AAF33689A01F6D554E6012855
:102FF0009A6A1D6B3FF451AE02F00303A16A8B4243
:103000007FF4AAAEC2F30512E36A9A427FF4A4AE3B
:10301000236BC5F30802013B9A427FF49DAE636BBC
:10302000C5F34622013B9A427FF496AEA36BC5F3EB
:103030000642013B9A427FF48FAEE06BC5F3066512
:103040000138281A18BF0120F8BD42F480221A6006
:103050001A6842F480321A6080E5144B41F28837D6
:103060001A6F1D4622F001021A671A6F22F004023D
:103070001A6703F025F9064605E003F021F9801BE5
:10308000B8423FF6CAAE2B6F9807F6D4E6E5EB6878
:10309000226A23F07C5343EA0263EB602368A6E5CF
:1030A000024A136F43F001031367A6E60044025877
:1030B0000CFCFFFF0700FFFF084A536823F0F843AA
:1030C00043F080435360236891E542F004021A679D
:1030D0001A6F42F001021A678FE600BF00440258DF
:1030E000F0B50C4689B01646224D00BBD5F8E0304D
:1030F0004FF48072022703A943F00103C5F8E030C2
:10310000D5F8E0300392032203F001030590079005
:1031100001931948019B0497069201F0B3F92B69BA
:1031200023F0FE7333431C432C6109B0F0BDD5F886
:10313000E03002224FF40070032143F0040344EA1C
:10314000C614C5F8E030D5F8E0300492002203F050
:1031500004030390069103A902930848029B059279
:10316000079201F08FF9296921F07E410C432C610F
:1031700009B0F0BD0044025800000258000802588F
:103180003E4A136903F03803102B04D0182B0DD0DE
:103190001BB13B4870473B4870471368990647D5B9
:1031A00013683948C3F3C103D8407047916A906AE5
:1031B000D36AC0F3051010B4546BB0B3C4F3CC049D
:1031C00003F0010301F0030107EE900A03FB04F38F
:1031D0000129F8EEE77A07EE103ABAEEE97A29D03B
:1031E00059B3022926D1DFED295AC5EEA76A136B20
:1031F000C3F3080307EE903AB7EE006AF8EEE77AF9
:1032000037EE877A37EE067A27EE267A1B4B1B6B52
:10321000C3F34623013307EE903AF8EEE76AC7EEB0
:10322000267AFCEEE77A17EE900A5DF8044B7047B9
:1032300015487047DFED165AD7E713689B061AD575
:103240001068B7EE005A1049C0F3C100136BC140BB
:10325000C3F3080306EE901AF8EEE65A06EE903A2B
:10326000B8EEE66AC5EEA76A36EE077A37EE057A5B
:1032700026EE877ACAE7DFED075AB6E70044025820
:1032800000093D0000366E010090D003001BB74BD3
:103290000024744A0024744C78B18C4A136803F0FB
:1032A0000F038B420BD2136823F00F030B43136001
:1032B000136803F00F038B4201D0012070470368AD
:1032C0002DE9F0415D070BD5814C0569A26902F03B
:1032D0007002954204D9A26922F070022A43A261C9
:1032E0001C070BD57A4C4569E26902F070029542E1
:1032F00004D9E26922F070022A43E261DA060BD5B2
:10330000734C8569E26902F4E062954204D9E2698E
:1033100022F4E0622A43E2619F060BD56C4CC5693A
:10332000226A02F07002954204D9226A22F07002E9
:103330002A4322629E0704460D4603F0010258D537
:10334000634EC068B16901F00F01884204D9B169C8
:1033500021F00F010143B161002A31D05C4AA1681C
:10336000936923F470630B439361616813680229C6
:1033700000F0A280032900F09B80012900F0A280C8
:103380005F0733D5524A41F288381369164623F055
:1033900007030B43136102F093FF074605E002F0B9
:1033A0008FFFC01B404500F28B803369626803F0D9
:1033B0003803B3EBC20FF2D123689E0706D5E0684D
:1033C00043498A6902F00F0282426BD83F490A687A
:1033D00002F00F02AA420FD90A6822F00F022A4314
:1033E0000A600A6802F00F02AA4205D00120BDE877
:1033F000F081002AB2D1E9E758070BD5344920699A
:103400008A6902F07002904204D28A6922F0700246
:1034100002438A6119070BD52D496069CA6902F018
:103420007002904204D2CA6922F070020243CA615B
:10343000DA060BD52649A069CA6902F4E062904217
:1034400004D2CA6922F4E0620243CA619B060BD52A
:103450001F4AE169136A03F07003994204D2136AA8
:1034600023F070030B431362FFF78AFE184A1949D1
:1034700093699269C3F30323174D02F00F02174CAF
:10348000CB5C8A5C03F01F03154902F01F0220FA8F
:1034900003F3286823FA02F20B602260BDE8F041D2
:1034A00002F0ACBE8A6922F00F02104388618DE7FA
:1034B0009A013FF567AF99E798033FF563AF95E74A
:1034C000032094E7DB053FF55DAF8FE70020005256
:1034D0000044025890B60008A0000020A800002078
:1034E000A400002038B5FFF74BFE0B4B0B499A693F
:1034F0009B69C2F303220A4C03F00F03094D8A5C57
:10350000CB5C02F01F0203F01F0320FA02F222FA42
:1035100003F02A60206038BD0044025890B60008CD
:10352000A8000020A400002008B5FFF7DBFF054B32
:10353000054ADB69C3F30213D35C03F01F03D840D1
:1035400008BD00BF0044025890B6000808B5FFF758
:10355000C9FF054B054ADB69C3F30223D35C03F0C3
:103560001F03D84008BD00BF0044025890B60008B1
:103570003B4AF8B5936A03F00303032B69D0136841
:103580000F460646144623F08063136002F098FE4F
:10359000054604E002F094FE401B022857D8236839
:1035A0001A01F7D4A36A326823F47C332D4943EA25
:1035B0000233A3627568D6E90232013D501E013B19
:1035C0003269C5F308055B020004013A9BB200F4BE
:1035D000FE001206034302F0FE422B431343A36393
:1035E000E36A726923F0C0031343E362E36AB269DA
:1035F00023F020031343E362E36A23F01003E36242
:10360000E26BF369114041EAC301E163E36A43F00D
:103610001003E362E36AF7B1012F0CBF43F4801398
:1036200043F40013E3620E4B1A681C4642F08062BA
:103630001A6002F045FE054604E002F041FE401B20
:10364000022804D823681B01F7D50020F8BD032009
:10365000F8BD0120F8BD43F40023E362E3E700BFB7
:10366000004402580700FFFF3B4AF8B5936A03F095
:103670000303032B69D013680F460646144623F054
:103680008053136002F01CFE054604E002F018FEB1
:10369000401B022857D823689A00F7D4A36A3268DF
:1036A00023F07C732D4943EA0253A3627568D6E97F
:1036B0000232013D501E013B3269C5F308055B0231
:1036C0000004013A9BB200F4FE001206034302F02C
:1036D000FE422B4313432364E36A726923F440637D
:1036E0001343E362E36AB26923F400731343E362B2
:1036F000E36A23F48073E362626CF369114041EA88
:10370000C3016164E36A43F48073E362E36AF7B17F
:10371000012F0CBF43F4000343F08073E3620E4BB0
:103720001A681C4642F080521A6002F0C9FD054634
:1037300004E002F0C5FD401B022804D823689B006A
:10374000F7D50020F8BD0320F8BD0120F8BD43F4F3
:103750008003E362E3E700BF004402580700FFFF75
:103760002DE9F8430368044613F0006514D0426E57
:10377000B2F5801F00F0D1841AD9B2F5001F00F015
:10378000C483B2F5401F40F0398399480025016D8C
:1037900021F440110A430265DE0513D5626D042A47
:1037A0000FD8DFE812F08D0494048104320432044F
:1037B000002A40F023838E48C16A41F40031C1627F
:1037C000E3E701252E4698051BD5A26D802A00F05F
:1037D000BF8400F2A180002A00F0B483402A40F0A8
:1037E000A2800021201DFFF7C3FE23680646002E9D
:1037F00040F07E837E49A06D0A6D22F4E0720243A0
:103800000A6559051FD5D4F8A420B2F5800F00F041
:10381000968400F28B80002A00F08E83B2F5001FA0
:1038200040F08C800021201DFFF7A2FE2368064691
:10383000002E40F05F836E49D4F8A4008A6D22F414
:10384000600202438A651A051DD5D4F8A820B2F19A
:10385000007F00F0598474D8002A00F06783B2F129
:10386000807F74D10021201DFFF782FE2368064669
:10387000002E40F039835E49D4F8A8008A6D22F00A
:10388000E06202438A659F010BD5A26C102A00F00A
:10389000C88368D9202A00F02F83302A65D00125FB
:1038A0002E46D8041BD5E26DB2F5005F00F03E84D1
:1038B00050D8002A00F03483B2F5805F50D1002147
:1038C000201DFFF755FE23680646002E40F00E83AC
:1038D0004749E06D0A6D22F4E04202430A6599040B
:1038E00059D5226EB2F5003F00F0AD8348D842B101
:1038F000B2F5803F4DD10121201DFFF739FE23682D
:103900000646002E40F043833949206E0A6D22F4AA
:10391000E02202430A653EE0C02A3FF468AFB2F5F8
:10392000807F3FF464AF01252E466AE7B2F5C00FF1
:103930003FF47EAFB2F5000F3FF47AAF01252E467B
:1039400081E7B2F1407F93D0B2F1806F90D0012532
:103950002E4698E7B2F5405FB7D0B2F5804FB4D0AD
:1039600001252E46BBE7002A99D1002E40F0F882AF
:103970001F49A06CCA6C22F030020243CA6490E76F
:10398000B2F5802FBDD0B2F5A02FBAD0B2F5403F2E
:10399000B7D001252E465A0437D5D4F8AC20B2F161
:1039A000005F00F0628325D842B1B2F1805F2AD176
:1039B0000121201DFFF7DCFD23680646002E40F0A4
:1039C000E8820B491F04D4F8AC008A6D22F0E04273
:1039D00042EA00028A651AD4D80128D5626C032A0B
:1039E00000F20184DFE812F0AA01FF02A401AA019B
:1039F00000440258B2F1804FE0D0B2F1A04FDDD0C8
:103A0000B2F1405FDAD001252E461F04E4D5E26E04
:103A1000B2F1805F00F02183B2F1005F00F0DD8140
:103A2000002A00F0E0810125D8012E46D6D45902A3
:103A300000F19181DF0739D5A26F282A00F2918326
:103A4000DFE812F030008F038F038F038F038F03A3
:103A50008F038F03D9028F038F038F038F038F038D
:103A60008F038F0329008F038F038F038F038F032F
:103A70008F038F0330008F038F038F038F038F0318
:103A80008F038F0330008F038F038F038F038F0308
:103A90008F038F033000012104F12400FFF7E4FDC0
:103AA00023680646002E00F078823546980716D522
:103AB000626F052A00F29A83DFE812F00D008B0294
:103AC00006000D000D000D00012104F12400FFF798
:103AD000CBFD23680646002E00F03A823546590792
:103AE00017D5D4F89020052A00F28383DFE812F07E
:103AF0000D00670206000D000D000D00012104F10C
:103B00002400FFF7B1FD23680646002E00F0328244
:103B100035469A061DD5D4F88C20B2F1005F00F02E
:103B2000888200F290814AB1B2F1805F40F09781C3
:103B30000021201DFFF71CFD23680646002E40F0E3
:103B40002482B749D4F88C004A6D22F0E042024347
:103B50004A655F061DD5D4F89820B2F5006F00F0D5
:103B60008E8200F261814AB1B2F5806F40F06881C7
:103B70000021201DFFF7FCFC23680646002E40F0C4
:103B80000A82A749D4F898008A6D22F4E0520243D1
:103B90008A6518061DD5D4F89C20B2F5804F00F038
:103BA000788200F22D814AB1B2F5005F40F0348195
:103BB0000021201DFFF7DCFC23680646002E40F0A4
:103BC000E2819749D4F89C008A6D22F46042024356
:103BD0008A6519070BD5D4F88010B1F5805F00F025
:103BE0007D828F48426D22F440520A434265DA06D4
:103BF0000BD5D4F89410B1F5807F00F07A82884814
:103C0000826D22F440720A4382651F030ED5D4F8F8
:103C1000A010B1F5803F00F04781B1F5003F00F002
:103C20004A81002900F0AD8201252E4658030FD5A8
:103C3000D4F88420B2F5001F00F02481B2F5401FB3
:103C400000F02781B2F5801F00F0A48201252E46E6
:103C5000D90317D5E26C002A00F0A981B2F5803FA4
:103C600040F03F810221201DFFF782FC06462368B9
:103C7000002E40F09A816A49E06CCA6C22F48032CE
:103C80000243CA649A0000F121819F033FD4281C9B
:103C900018BF0120DE0206D56149256F0A6D22F0AA
:103CA00000422A430A65DD0007D55D49D4F8B450C7
:103CB0000A6922F480422A430A61990206D55849CA
:103CC000A56E0A6D22F080722A430A655A0009D552
:103CD000534A116921F4004111611169D4F8B850B7
:103CE00029431161002B06DA4D49256DCA6C22F07B
:103CF00040522A43CA641B0207D5494AD4F88810A7
:103D0000536D23F440030B435365BDE8F883E26F22
:103D1000B2F5807F00F02C8240F2A480B2F5007FE3
:103D200000F0A380B2F5407F00F09F800120B1E752
:103D30000221201DFFF71CFC23680646002E40F0E0
:103D400017813749606CCA6C22F003020243CA64CF
:103D500059027FF56FAE334B1A681F4642F48072EA
:103D60001A6002F0ADFA804606E002F0A9FAA0EB74
:103D70000800642800F2F8813B68DA05F5D5002ECA
:103D800040F02E82264AD4F8B030116F594011F419
:103D9000407F0BD0116F106F21F4407140F48030E0
:103DA0001067106F20F4803010671167B3F5807FC3
:103DB00000F0F98103F44072B2F5407F00F0068212
:103DC00017490A6922F47C520A61154AC3F30B03AE
:103DD000116F0B43136723682CE60121201DFFF7A9
:103DE000C7FB23680646002E40F0C0800C49E06EF9
:103DF0000A6D22F0405202430A65EDE50125CBE44D
:103E0000B2F5004F3FF4DAAEB2F5204F3FF4D6AE34
:103E1000B2F5C04F3FF4D2AE01252E46D9E600BF21
:103E20000044025800480258B2F5805F3FF4A6AE45
:103E3000B2F5A05F3FF4A2AEB2F5406F3FF49EAE84
:103E400001252E46A5E6B2F1804F3FF477AEB2F1E0
:103E5000A04F3FF473AEB2F1405F3FF46FAE012567
:103E60002E4676E6002A7FF461AF002E7FF45EAF27
:103E7000AD4E281C716D18BF012021F440710A431A
:103E8000726507E7012104F12400FFF7EDFB2368C9
:103E90000646002E68D1A449D4F884004A6D22F465
:103EA000401202434A65D3E6022104F12400FFF7E1
:103EB000DBFB23680646002E54D19B49D4F8A000B2
:103EC0008A6D22F4403202438A65AFE6022104F192
:103ED0002400FFF7C9FB236800283FF4D6AE012574
:103EE000D3E601252E46CDE63546CCE43546F6E44C
:103EF000354686E43546A6E40221201DFFF738FB4F
:103F000006462368002E2BD132E502212430FFF72C
:103F1000ABFB05462368002D7FF43EAC626E34E4B3
:103F20008149CA6A42F40032CA62CEE47E49CA6A52
:103F300042F40032CA629BE47B49CA6A42F400320E
:103F4000CA6275E47849CA6A42F40032CA624EE431
:103F50007549606F4A6D22F0070202434A65BEE56B
:103F600035469EE4354661E6354671E6354633E52D
:103F700035465CE56C49D4F890008A6D22F0070262
:103F800002438A65C5E5354623E63546E1E5354613
:103F900001E5354639E53546FBE56349A06F4A6DD5
:103FA00022F0380202434A6580E535466AE65E49FA
:103FB000CA6A42F40032CA62002EF6D15BE60121E1
:103FC000201DFFF7D5FA06462368002E7FF4A0AD2A
:103FD000D0E70121201DFFF7CBFA06462368002E0B
:103FE0007FF47CADB4E75049CA6A42F40032CA6239
:103FF000002EBDD1A5E60121201DFFF7B9FA064626
:104000002368002E7FF451ADC7E72E46002E54D111
:104010004549606D0A6D22F0070202430A65FFF709
:10402000D2BB4149CA6A42F40032CA62002E97D11B
:104030009EE4022104F12400FFF716FB06462368E4
:10404000002EA2D17DE5012104F12400FFF70CFB35
:1040500006462368002E9AD156E43349CA6A42F4D0
:104060000032CA62002E81D1C0E6012104F1240091
:10407000FFF7FAFA06462368002E8AD1A1E402214E
:1040800004F12400FFF7F0FA06462368002E82D1DF
:1040900077E5022104F12400FFF7E6FA06462368DB
:1040A000002E7FF470AF8CE5002104F12400FFF7AF
:1040B000DBFA06462368002EAAD03546FFF783BBFD
:1040C00019492E46CA6A42F40032CA629EE70021AC
:1040D000201DFFF74DFA2368064697E7022104F1F9
:1040E0002400FFF7C1FAD4F8801000B1012523683D
:1040F00077E5022104F12400FFF7B6FAD4F8941012
:1041000000B1012523687AE5002104F12400FFF7BE
:10411000ABFA23680646FFF7ABBB02210430FFF77A
:1041200027FA0546F6E600BF00440258002104F1D4
:104130002400FFF799FA23680646FFF7C6BB002163
:1041400004F12400FFF790FA23680646FFF770BBDE
:10415000002104F12400FFF787FA23680646FFF7E1
:1041600046BB01252E46A1E4032523682E4661E4C3
:104170002148C16A41F40031C162002E7FF4D6ADFE
:1041800076E6201DFFF7F4F906462368002E7FF43B
:10419000E9AE92E61849CA6A42F40032CA62002EB9
:1041A0007FF4E2AE77E602F08BF8134F814641F2DE
:1041B000883805E002F084F8A0EB09004045D3D828
:1041C0003B6F9B07F6D5D4F8B030F3E50A480B4AAD
:1041D000016902EA131221F47C510A430261F4E5F9
:1041E0002368354626E401252E4620E401252E4687
:1041F00075E401252E468CE400440258CFFFFF00F1
:1042000008B5FFF76FF9054B054A1B6AC3F30213A4
:10421000D35C03F01F03D84008BD00BF0044025820
:1042200090B60008464A30B4946A936AD16AC3F3E0
:104230000533D56B002B5DD0C5F3CC05C1F3001160
:1042400004F0030407EE903A01FB05F1012CF8EEAF
:10425000E77A06EE901AFAEEE96A48D0002C4ED0C2
:10426000022C44D19FED377A87EE276A936BC3F314
:10427000080307EE903AF7EE005AB8EEE77A77EEC9
:10428000267A77EEA57A67EE867A2D4AB7EE006A2F
:10429000936BC3F3462306EE903AF8EEE66A30BC21
:1042A00076EE866A87EEA67ABCEEC77A80ED007A53
:1042B000936BC3F3064306EE903AF8EEE66A76EEA9
:1042C000866A87EEA67ABCEEC77A80ED017A936B98
:1042D000C3F3066307EE103AB8EEC77A37EE067AF4
:1042E000C7EE876AFCEEE66AC0ED026A70479FED92
:1042F000167AB9E7C0E90033836030BC70471368B1
:104300009B061AD51468B7EE005A1049C4F3C104CD
:10431000936BE140C3F3080307EE101AF8EEC75A97
:1043200007EE103AB8EEC76A85EEA77A76EE267ADF
:1043300077EE857A67EE277AA7E79FED057A93E710
:1043400000440258001BB74B0024744A0090D0036D
:104350000024744C464A30B4946A936AD16AC3F319
:104360000553556C002B5DD0C5F3CC05C1F300217E
:1043700004F0030407EE903A01FB05F1012CF8EE7E
:10438000E77A06EE901AFAEEE96A48D0002C4ED091
:10439000022C44D19FED377A87EE276A136CC3F362
:1043A000080307EE903AF7EE005AB8EEE77A77EE98
:1043B000267A77EEA57A67EE867A2D4AB7EE006AFE
:1043C000136CC3F3462306EE903AF8EEE66A30BC6F
:1043D00076EE866A87EEA67ABCEEC77A80ED007A22
:1043E000136CC3F3064306EE903AF8EEE66A76EEF7
:1043F000866A87EEA67ABCEEC77A80ED017A136CE6
:10440000C3F3066307EE103AB8EEC77A37EE067AC2
:10441000C7EE876AFCEEE66AC0ED026A70479FED60
:10442000167AB9E7C0E90033836030BC704713687F
:104430009B061AD51468B7EE005A1049C4F3C1049C
:10444000136CE140C3F3080307EE101AF8EEC75AE5
:1044500007EE103AB8EEC76A85EEA77A76EE267AAE
:1044600077EE857A67EE277AA7E79FED057A93E7DF
:1044700000440258001BB74B0024744A0090D0033C
:104480000024744C2DE9F04F0D6885B0002D00F02C
:10449000A6800023DFF844B201914FF0010C0CFA22
:1044A00003FC1CEA050A00F09580019903245F00D3
:1044B0004E6806EA0402BC4002F1FF3EE443BEF14E
:1044C000010F40F28F80032A40F0A380D0F800C093
:1044D000BA4016F4403F0CEA040442EA04020260C7
:1044E00078D0784A23F0030E0F24D2F8F4701146E6
:1044F00003F0030247F0020C734F9200C1F8F4C0BE
:104500007744D1F8F4C0A1F5884194400CF0020C36
:104510008842CDF80CC0DDF80CC0D7F808C02CEAF2
:1045200004042ED001F58061884200F0A080674924
:10453000884200F0A2806649884200F09280654976
:10454000884200F0A6806449884200F0A880DFF825
:1045500090C1604500F09780DFF888C1604500F0A9
:10456000A480DFF884C1604500F0A580DFF87CC13D
:1045700060450CBF4FF0090C4FF00A0C0CFA02F228
:1045800014434FF0B042BC606FEA0A071468F202AD
:104590004FF0B04254BF3C404AEA0404B1021460F8
:1045A00054684FF0B04254BF3C404AEA040454609F
:1045B000B203DBF8044054BF3C404AEA0404F10370
:1045C000CBF80440DBF8002054BF3A404AEA02022C
:1045D000CBF80020013335FA03F27FF45EAF05B06B
:1045E000BDE8F08FD0F80880C6F3001EC96808EA5D
:1045F00004080EFA03FE01FA07F949EA0808C0F8B0
:104600000880D0F8048028EA0C0C4EEA0C0EC0F8A2
:1046100004E00199022AD0F80CE089680EEA040E41
:1046200001FA07FC4CEA0E0CC0F80CC07FF44EAF48
:104630004FEAD30E03F0070C4FF00F09019900EB7E
:104640008E0E4FEA8C0C0969DEF8208009FA0CF90D
:1046500001FA0CFC28EA09084CEA0808CEF8208088
:1046600034E74FF0030C0CFA02F2144389E74FF0E1
:10467000010C0CFA02F2144383E74FF0020C0CFA1F
:1046800002F214437DE74FF0060C0CFA02F21443D9
:1046900077E74FF0040C0CFA02F2144371E74FF085
:1046A000050C0CFA02F214436BE74FF0070C0CFAFE
:1046B00002F2144365E74FF0080C0CFA02F21443BF
:1046C0005FE700BF00440258000400580008025889
:1046D000000C0258001002580014025880000058C4
:1046E00000180258001C02580020025800240258EA
:1046F00002B9090481617047436901EA030221EAB2
:10470000030141EA02418161704700BF2DE9F04198
:10471000634D90460468866DAC4200F0A480183565
:10472000AC4200F0A08018355E4FDFF880E1BC425B
:1047300018BFAC42DFF878C107F148070CBF01256C
:104740000025744508BF45F001050EF1480E64458B
:1047500008BF45F001050CF5627CBC4208BF45F07E
:104760000105514F744508BF45F00105DFF844E1EC
:10477000644508BF45F00105744518BFBC420CF103
:10478000180C0EF1280E0CBF01270027644508BF46
:1047900045F001050CF1180C744508BF47F00107FE
:1047A0000EF1140E644508BF45F001050CF1180C1C
:1047B000744508BF47F001070EF1140E644508BFA9
:1047C00045F001050CF1180C744508BF47F00107CE
:1047D0000EF1140E644508BF45F001050CF1180CEC
:1047E000744508BF47F001070EF1140E644508BF79
:1047F00045F001050CF1180C744508BF47F001079E
:104800000EF1140E644508BF45F001050CF1180CBB
:10481000744508BF47F00107644508BF45F001052E
:1048200007B9F5B1426EC76E9446826ECCF804208B
:104830001FB3D0E91C727A600DB3C76D3F25D0F865
:1048400008C007F01F07BCF1400F05FA07F5B56077
:10485000206820F48020206063601BD0A160C4F831
:104860000C80BDE8F081D0E91A75426E5760002DCA
:10487000E3D0D0E91C576F60DFE7002DDDD1C76DB5
:104880000125806807F01F07402805FA07F57560C5
:104890006360E3D1C4F80880E160BDE8F08100BF47
:1048A00010000240580002401C54025870000240A0
:1048B000880002400854025802680146334B3448CD
:1048C00030B4344C344DA24218BF9A4204F148042B
:1048D0000CBF01230023824208BF43F0010348308C
:1048E000AA4208BF43F001034835A24208BF43F083
:1048F00001034834824208BF43F0010300F56270AF
:10490000AA4208BF43F0010305F56275A24208BF41
:1049100043F0010304F56274824208BF43F00103CF
:104920004830AA4208BF43F001034835A24208BFFD
:1049300043F001034834824208BF43F0010348308A
:10494000AA4208BF43F00103A24208BF43F001039B
:10495000824208BF43F0010313B9104B9A4211D1B0
:10496000D4B20F4B0F48103C0F4D1040A3FB04C3B3
:104970005F2CC3F3021388BF0430EB5C8865CB6502
:1049800030BC704722F0FF008865F9E71000024054
:10499000400002402800024058000240B804024093
:1049A000ABAAAAAA00FCFFFF24B6000801682A4BA4
:1049B0002A4A914218BF994202F13C020CBF0123DE
:1049C000002330B4264D274CA94208BF43F0010311
:1049D0003C35A14208BF43F001033C34914208BF7B
:1049E00043F00103CAB2A94208BF43F00103A14248
:1049F00008BF43F0010313B91B4B994213D1A2F135
:104A000008031A4A1A490124A2FB0323194A1B0965
:104A10004266194403F01F03890004FA03F3016698
:104A2000836630BC7047A2F11003134A134C0A444A
:104A3000A4FB0343A82A4FEA131300D80833104AF3
:104A400003F01F0501210F4C1A44A940446692004F
:104A500081660266E5E700BF085402581C540258FC
:104A6000305402584454025894540258CDCCCCCC03
:104A70000096001680580258F0FBFDBFABAAAAAA08
:104A8000008200108008024070B40479611E07297A
:104A900030D802681C4B1D4E1D4DB24218BF9A42C1
:104AA00006F128060CBF01230023AA4208BF43F0E9
:104AB00001032835B24208BF43F001032836AA4259
:104AC00008BF43F001032835B24208BF43F0010399
:104AD000AA4208BF43F0010313B90E4B9A420BD10F
:104AE0000D4B0E4A234402679B00C366012303FA61
:104AF00001F1416770BC7047094B0A4A23440267C1
:104B00009B00C366F2E700BF085402581C540258C9
:104B100030540258945402583F9600164059025897
:104B20003F82001040090240F8B5044601F0C8FB7E
:104B3000002C00F0828123680546A74A934249D0A1
:104B40001832934246D01832A448A549834218BF70
:104B5000934200F130000CBF012200228B4208BFBB
:104B600042F001023031834208BF42F0010230308E
:104B70008B4208BF42F0010201F55C71834208BF1D
:104B800042F0010200F55C708B4208BF42F0010266
:104B90003031834208BF42F0010230308B4208BFFF
:104BA00042F001023031834208BF42F0010230304E
:104BB0008B4208BF42F001023031834208BF42F00D
:104BC00001028B4208BF42F001021AB9854A9342A2
:104BD00040F06F810022022184F8342084F83510DF
:104BE0001A6822F001021A6006E001F069FB401B1E
:104BF000052800F2098123681A68D607F5D4D4E99C
:104C0000022120690A431F68D4E905610243324347
:104C1000754ED4E907500A433E402A43656A024371
:104C2000042D42EA060200F00A81704E7048366890
:104C30003040B0F1005F80F0AB801A605A6922F01A
:104C400007022A435A612046FFF736FEE26D3F23F2
:104C500002F01F029340836022685F4B6549664DF6
:104C60008A4218BF9A425D4801F148010CBF0123F6
:104C70000023AA4208BF43F001034835824208BF1F
:104C800043F0010348308A4208BF43F00103483132
:104C9000AA4208BF43F0010305F56275824208BFCE
:104CA00043F0010300F562708A4208BF43F001033C
:104CB00001F56271AA4208BF43F001034835824200
:104CC00008BF43F0010348308A4208BF43F00103A4
:104CD0004831AA4208BF43F001034835824208BF69
:104CE00043F0010348308A4208BF43F0010301F159
:104CF000C051AA4208BF43F0010301F59F413F4D57
:104D0000824208BF43F001033D488A4208BF43F096
:104D100001033C31AA4208BF43F001033C35824203
:104D200008BF43F001033C308A4208BF43F001034F
:104D30003C31AA4208BF43F00103824208BF43F05E
:104D400001038A4208BF43F0010313B92D4B9A4275
:104D500018D12046FFF72AFEA368802B61D0636834
:104D6000206EDDB2013BD4E91921072B05605160AB
:104D70005ED82046FFF788FEE16E0020D4E91C32A1
:104D800008605A6000200123606584F83530F8BD62
:104D90006068A0F129061F2E3DD94F38032801D89D
:104DA00042F480121A60042D5A6922F0070242EA86
:104DB00005027FF447AFE06AA56A2A4300283FF462
:104DC00041AF00294FD1012D6ED0002D53D0022DBF
:104DD0007FF438AF4FE000BF10000240580002409F
:104DE00070000240B80402403F8010FE0010005CDA
:104DF0000000FFFF28000240400002401C540258FF
:104E00003054025894540258202203230120626532
:104E100084F83530F8BD5B4820FA06F6F007C1D5B6
:104E2000BEE70023A16ED4E91802636003605160FD
:104E30000023C4E91B336367A4E70120F8BD52488F
:104E4000524E0768E06A3E40276BB6F1005F40EAC9
:104E5000070742EA07029BD21A605A6922F007024A
:104E600042F00402A8E7B1F5005F0ED0022D05D98B
:104E7000032D7FF4E7AEC1017FF5E4AE01234022AC
:104E80001846626584F83530F8BD032D3FF6DAAE7A
:104E900001A151F825F000BF7D4E0008774E0008B3
:104EA0007D4E0008A94E0008B0F1C07F7FF4CAAE65
:104EB000E4E7374A374938488B4218BF934201F13B
:104EC0002801364D0CBF01220022834208BF42F068
:104ED00001023C308B4208BF42F001023C31AB4240
:104EE00008BF42F00102834208BF42F001028B4238
:104EF00008BF42F0010212B9294A93423AD1022175
:104F0000A268284F002084F83510402A196884F8D8
:104F1000340007EA01072BD0802A0CBF4FF48041F0
:104F2000014622692046E668D2086569DFF87CC040
:104F300042EAD602A66942EAD502E56942EAD60209
:104F4000194E42EAD5021E44256A42EA1512ACFB0C
:104F500006653A432D091143AD001960E565FFF779
:104F6000ABFCE26D012302F01F029340436073E645
:104F70001021D6E7402203230120626584F83530F2
:104F8000F8BD00BF3F00C0C30010005C0000FFFF81
:104F9000085402581C5402583054025858540258AD
:104FA000945402580F00FEFFF8ABFDA7CDCCCCCC3B
:104FB000002800F09980F8B5044690F834000128E4
:104FC00000F09480012094F83550854284F8340034
:104FD00006D04FF400620023626584F83430F8BDD7
:104FE0000227256884F8357000276765286820F057
:104FF000010028602046FFF789FB23685649574A7D
:10500000934218BF8B4265D030325548554D83428C
:1050100018BF934200F148000CBF01220022AB42AE
:1050200008BF42F001023035834208BF42F001025E
:105030003030AB4208BF42F0010205F55C75834297
:1050400008BF42F0010200F55C70AB4208BF42F0BD
:1050500001023035834208BF42F001023030AB42DA
:1050600008BF42F001023035834208BF42F001021E
:105070003030AB4208BF42F001023035834208BFF6
:1050800042F00102206CAB4208BF42F0010212B9AB
:10509000354A93422CD11A6822F01E0242F01602C1
:1050A0001A6018B11A6842F008021A60226E10687D
:1050B000C00303D5106840F480701060E26E1AB12E
:1050C000106840F4807010601A68002042F00102FD
:1050D0001A60F8BD1A68206C22F01E0242F0160217
:1050E0001A600028DED1E1E7012070470220F8BDF8
:1050F0001A6822F00E0242F00A021A6018B11A6809
:1051000042F004021A60194A194D1A48AB4218BFFE
:10511000934205F13C050CBF01220022834208BFE7
:1051200042F001022830AB4208BF42F001022835AC
:10513000834208BF42F001022830AB4208BF42F070
:105140000102834208BF42F00102002AAED10A4A9E
:105150009342ABD0B8E700BF1000024028000240E5
:105160004000024070000240B80402401C54025843
:1051700008540258305402589454025870B50546E9
:1051800001F09EF8002D00F02B8195F83530022BB0
:1051900040F0E4802C680646924B9349934A8C4237
:1051A00018BF9C4201F1300191480CBF012300233C
:1051B000944208BF43F0010348328C4208BF43F0D9
:1051C000010301F56271844208BF43F0010300F559
:1051D0006270944208BF43F0010302F562728C4290
:1051E00008BF43F001034831844208BF43F0010384
:1051F0004830944208BF43F0010348328C4208BF54
:1052000043F001034831844208BF43F001034830B2
:10521000944208BF43F00103A2F58F628C4208BF9D
:1052200043F00103A1F58F61844208BF43F00103FD
:105230008C4218BF94420CBF0122002202D0002BE6
:1052400000F093802168286E21F01E0121606169C1
:1052500021F080016161002A00F0B380036823F42B
:1052600080730360236823F00103236005E001F0ED
:1052700027F8801B052800F2A9802368DB07F6D4F5
:105280002A685C4B5C49574C8A4218BF9A4201F12C
:10529000300156480CBF01230023A24208BF43F04F
:1052A000010348348A4208BF43F001034831824277
:1052B00008BF43F001034830A24208BF43F0010396
:1052C00004F562748A4208BF43F0010301F562717C
:1052D000824208BF43F0010300F56270A24208BF9A
:1052E00043F0010348348A4208BF43F001034831C8
:1052F000824208BF43F001034830A24208BF43F096
:10530000010348348A4208BF43F00103E96D824239
:1053100008BF43F0010301F01F01A86DA24208BFBE
:1053200043F0010313B9354B9A4271D13F2303FA7D
:1053300001F18160EB6ED5E91921516033B11A6832
:10534000296F686F22F480721A604860002301227E
:10535000184685F8352085F8343070BD802200234A
:1053600001206A6585F8343070BD254A25492648F4
:105370008C4218BF944201F13C010CBF0122002273
:10538000844208BF42F0010228308C4208BF42F03C
:1053900001022831844208BF42F0010228308C42C9
:1053A00008BF42F001022168844208BF42F00102B6
:1053B00021F00E0121601AB9144A94427FF452AFD1
:1053C000286E026822F4807202604BE720210323DA
:1053D00000220120696585F8342085F8353070BDDC
:1053E000012070BD400002405800024070000240A1
:1053F000A00002401000024028000240B804024011
:105400001C540258085402583054025894540258FC
:10541000164B0124164E04FA01F1164CB24218BF85
:105420009A4206F13C0641600CBF0123002312485A
:10543000A24208BF43F0010328341049B24208BF1A
:1054400043F00103A24208BF43F00103824208BFB8
:1054500043F001038A4208BF43F00103002B7FF4AD
:1054600069AF074B9A423FF465AF6FE71C5402588F
:1054700008540258305402586C5402588054025850
:1054800094540258002860D0014638B590F8353061
:10549000022B56D10268594B9A4249D018339A428E
:1054A00046D030335648574C824218BF9A4200F1DA
:1054B0004800554D0CBF01230023A24208BF43F012
:1054C00001034834824208BF43F0010300F56270D3
:1054D000AA4208BF43F0010305F56275A24208BF66
:1054E00043F0010304F56274824208BF43F00103F4
:1054F0004830AA4208BF43F001034835A24208BF22
:1055000043F001034834824208BF43F001034830AE
:10551000AA4208BF43F00103A24208BF43F00103BF
:10552000824208BF43F0010313B9384B9A420ED1AF
:105530000423002081F83530136823F00103136041
:1055400038BD802301204B6538BD0120704704F130
:10555000C0542F4B2F4804F59F442F4DA24218BF33
:105560009A4204F150040CBF01230023824208BF79
:1055700043F001031068AA4208BF43F0010320F082
:105580000E002835A24208BF43F001031060283402
:105590001068AA4208BF43F0010320F00100A242B4
:1055A00008BF43F00103106013B91C4B9A4217D196
:1055B0000C6E0122C86D236800F01F008D6D23F46E
:1055C00080738240486E2360D1E91A436A60446068
:1055D00033B11A68086F4C6F22F480721A6044600D
:1055E000012200240B6D81F8352081F834401BB175
:1055F00008469847204638BD184638BD100002407E
:105600004000024070000240A0000240B804024086
:105610001C540258305402584454025894540258AE
:105620002DE9F04703680446856D0026A94882B03D
:10563000A94AAA49934218BF834201960E682F686F
:1056400008BF0120296818BF00204FD01832DFF8AA
:1056500094E2DFF898C2734518BF93420EF1300E02
:105660000CBF01220022634508BF42F001020CF189
:10567000300C734508BF42F001020EF1300E634555
:1056800008BF42F001020CF55C7C734508BF42F094
:1056900001020EF55C7E634508BF42F001020CF189
:1056A000300C734508BF42F001020EF1300E634525
:1056B00008BF42F001020CF1300C734508BF42F004
:1056C00001020EF1300E634508BF42F001020CF1F9
:1056D000300C734508BF42F00102634508BF42F039
:1056E00001021AB97E4A934240F01382D4F85CE07A
:1056F00008220EF01F0C02FA0CF2174200F02B8168
:105700001968490708D5196821F004011960AA60D1
:10571000626D42F001026265042127FA0CF201FA7F
:105720000CF1D20707EA010840F129816D4ADFF840
:10573000B891DFF8B8A14B4518BF934209F1480969
:105740000CBF01220022534508BF42F001020AF1BA
:10575000300A4B4508BF42F0010209F130095345B8
:1057600008BF42F001020AF55C7A4B4508BF42F0DF
:10577000010209F55C79534508BF42F001020AF1C4
:10578000300A4B4508BF42F0010209F13009534588
:1057900008BF42F001020AF1300A4B4508BF42F04F
:1057A000010209F13009534508BF42F001020AF134
:1057B000300A4B4508BF42F0010209F13009534558
:1057C00008BF42F001024B4508BF42F00102002A27
:1057D00040F0CA80002840F0C7801A68B8F1000F76
:1057E00040F02182102101FA0CF10F4240F02C818F
:1057F0000EF01F012020884038427DD02268354BB2
:10580000DFF8D4C0384F624518BF9A420CF1300C13
:105810000CBF01230023BA4208BF43F00103303715
:10582000624508BF43F001030CF1300CBA4208BFD7
:1058300043F001033037624508BF43F001030CF128
:10584000300CBA4208BF43F0010307F55C776245AC
:1058500008BF43F001030CF55C7CBA4208BF43F07B
:1058600001033037624508BF43F001030CF1300CEF
:10587000BA4208BF43F001033037624508BF43F026
:1058800001030CF1300CBA4208BF43F0010330377A
:10589000624508BF43F00103BA4208BF43F0010369
:1058A0001BB90F4B9A4240F0D9811368C3F3001320
:1058B00013B3A86094F83530042B136800F080818E
:1058C00013F4802F136800F097811D0340F1A2812B
:1058D0000EE000BF1000024028000240A40000209B
:1058E000B8040240580002404000024070000240EC
:1058F000E36B0BB120469847636D002B00F04481A9
:10590000636DD8071ED52268042084F8350013681B
:1059100023F001031360A14BA3FB0636B60A02E095
:105920001368D90704D5019B0133B3420193F7D91A
:105930001368DB074CBF0323012384F835300023B1
:1059400084F83430E36C002B00F01E81204602B056
:10595000BDE8F0471847042127FA0CF201FA0CF1D0
:10596000D20707EA01080AD55A69120607D50122AB
:1059700002FA0CF2AA60626D42F002026265B8F1AE
:10598000000F59D000284FD1854ADFF83092DFF858
:1059900018824B4518BF934209F130090CBF012210
:1059A0000022434508BF42F0010208F130084B4590
:1059B00008BF42F0010209F13009434508BF42F037
:1059C000010208F55C784B4508BF42F0010209F579
:1059D0005C79434508BF42F0010208F130084B45AD
:1059E00008BF42F0010209F13009434508BF42F007
:1059F000010208F130084B4508BF42F0010209F1ED
:105A00003009434508BF42F0010208F130084B4518
:105A100008BF42F00102434508BF42F001021AB933
:105A2000604A934240F0FF801A68920704D5A9604B
:105A3000626D42F004026265102101FA0CF13942F4
:105A40003FF4D6AE00284AD1554ADFF870C1564817
:105A5000634518BF93420CF1300C0CBF01220022A9
:105A6000834208BF42F001023030634508BF42F074
:105A700001020CF1300C834208BF42F0010200F534
:105A80005C70634508BF42F001020CF55C7C834208
:105A900008BF42F001023030634508BF42F0010206
:105AA0000CF1300C834208BF42F0010230306345F4
:105AB00008BF42F001020CF1300C834208BF42F0F3
:105AC00001023030634508BF42F00102834208BF43
:105AD00042F001021AB9334A934240F0AB801A688F
